:1000000000800010D5070000050800000708000068
:10001000090800000B0800000D08000000000000A7
:100020000000000000000000000000000F080000B9
:10003000110800000000000013080000150800006F
:100040001708000017080000170800001708000034
:100050001708000017080000170800001708000024
:100060001708000017080000170800001708000014
:100070001708000017080000170800001708000004
:1000800017080000170800001708000017080000F4
:1000900017080000170800001708000017080000E4
:1000A00017080000170800001708000017080000D4
:1000B00017080000170800001708000017080000C4
:1000C000170800001708000017080000044B054837
:1000D0001B1A062B02D9044B03B11847704700BF07
:1000E000830100108001001000000000054906484F
:1000F000091A891001EBD171491002D0034B03B1E9
:1001000018477047800100108001001000000000B7
:1001100010B5064C237843B9FFF7D8FF044B13B151
:100120000448AFF300800123237010BD800100104C
:10013000000000005081000008B5084B1BB10849C1
:100140000848AFF300800848036813B9BDE80840C9
:10015000CCE7064B002BF9D09847F7E700000000EA
:100160008401001050810000800100100000000098
:10017000154B002B08BF134B9D46A3F5803A002179
:100180008B460F461348144A121A01F0F8FF0F4B22
:10019000002B00D098470E4B002B00D09847002032
:1001A000002104000D000D48002802D00C48AFF3D8
:1001B000008001F049FF2000290000F0D1FA01F091
:1001C00071FC00BF0000080000800010000000006B
:1001D000000000008001001030040010000000004A
:1001E000000000007047000010B50446064B403088
:1001F00003F1180240F8403C4C330260436001F0C8
:10020000DFF8204610BD00BF807B0000A0F1400059
:10021000EAE7A0F14400E7E710B5044601F027FC47
:10022000204610BD84B010B502AC84E80F00039CDA
:10023000059B06481C6001F017FA069B04481C60E9
:10024000BDE8104004B001F00FBA00BFCDCC4C3E69
:100250009A99193F07B50C490C4801F0F7F80C4D75
:100260000C4C0D4B93E803008DE8030095E80F005C
:10027000FFF7D8FF094B93E803008DE8030094E8EB
:100280000F00FFF7CFFFECE770770000F4010010DC
:100290009C0100100C020010AC0100101C020010A8
:1002A00010B50446FFF7A0FF204601F0E0FB204612
:1002B00010BDA0F14000F3E7A0F14400F0E700001A
:1002C00038B5114C18252A460021204601F057FF69
:1002D00020460E4C0E4901F0FFF82A460021204628
:1002E00001F04DFF20460B4C0B4901F0F5F80023BF
:1002F0000A4A0B49204600F0D3FF2046BDE83840AB
:10030000084A094901F0AEBB9C0100100C02001024
:1003100034C00920B401001035C0092003C00920F1
:1003200002C00920C8000010E901000000B599B022
:1003300072B63B49684601F0CFF806A8394901F08A
:10034000CBF80CA8384901F0C7F812A8374901F0DA
:10035000C3F832E00699039B019A01311A6059D023
:100360000C990A9B079A01311A604DD01299109B83
:100370000D9A01311A6041D0159B139A96201A608C
:1003800001F07EF9009B013332D00699049B019A5B
:1003900001311A6026D00C99099B079A01311A6025
:1003A0001AD012990F9B0D9A01311A600ED0169B2C
:1003B000139A96201A6001F063F9009B0133C9D1AA
:1003C0001B481C49242201F057F8C3E71848194973
:1003D000242201F051F8EAE715481649242201F0D9
:1003E0004BF8DEE712481349242201F045F8D2E722
:1003F0000F481049242201F03FF8C6E70C480D4988
:10040000242201F039F8B7E709480A49242201F00B
:1004100033F8ABE706480749242201F02DF89FE79F
:1004200032C0092034C0092035C0092037C0092056
:100430008C770000A47700000C4A30B4936894686D
:100440001A46B4F1805F0CD2094A03F1C40553F88F
:10045000044BAB4242F8044FF9D1044B4FF08052A9
:100460009A60103042F8201030BC704700ED00E078
:10047000FCFFFF0F036870B51B69002101220446D1
:100480009847431C05460ED0236820461B6900216F
:10049000022298472368064629461B692046002207
:1004A0009847304670BD70BD084A094B10B40260D1
:1004B00003F58071002453F8042B824208BF43F8EF
:1004C000044C8B42F7D15DF8044B70473078000044
:1004D000240200100A4A0B4B10B503F58071044644
:1004E0000260002053F8042B944208BF43F8040C28
:1004F0008B42F7D1204601F0BAFA204610BD00BF6A
:10050000307800002402001002480349034A00F03A
:1005100085BD00BF2404001002C0092003C00920CB
:10052000F0B50E4685B03549054603F050F920B9BF
:10053000334B1B6863B105B0F0BD2846314903F069
:1005400046F978B92E4B1B6843B1012005B0F0BDC8
:100550000190FFF7D9FF019805B0F0BDFFF7D4FF78
:100560000120E8E72846284903F031F910B3274B6A
:10057000002402E00134402C21D053F8040F00285D
:10058000F8D12B783A2B32D0294602A800F024FE6D
:1005900002A800F073FE90B102A800F057FE88B1E7
:1005A00002A800F05DFE03464BB1194AE01C42F878
:1005B0002430C0E7124B1B68ABB10220BBE74FF001
:1005C000FF30B8E702A800F035FE05460028F6D057
:1005D000036802A89F6800F02BFE324601462846B9
:1005E000B8470346E0E7FFF78FFF0220A3E728465E
:1005F000084902AA03F07CF8029BD5E70C780000BA
:10060000240300101C780000147800002002001061
:100610002402001058780000022808B50BDD084BB2
:10062000C21E53F82200002143F8221028B10368AB
:100630005B68984708BD002008BD4FF0FF3008BD3B
:1006400024020010022870B50C4616460FDC0E4B33
:100650001B680BB9FFF758FFA51936B114F8011B39
:100660000A4800F02BFCAC42F8D1304670BD084B74
:10067000033853F8200018B103681B68984770BD11
:100680004FF0FF3070BD00BF2403001024040010A1
:1006900024020010022810B50C4609DC0D4B1B6823
:1006A0008BB10D4800F0B4FB01232070184610BD3B
:1006B0000A4B033853F8200040B103689B68984701
:1006C0000346184610BDFFF71FFFEAE74FF0FF3360
:1006D000ECE700BF240300102404001024020010E3
:1006E000022808B508DD074B033853F8200028B16D
:1006F0000368DB68984708BD012008BD4FF0FF3054
:1007000008BD00BF24020010022808B508DD074B11
:10071000033853F8200028B103681B69984708BDC7
:10072000002008BD4FF0FF3008BD00BF24020010BC
:10073000022808B504D84FF400534B60002008BDD0
:1007400001F0AAF9092303604FF0FF3008BD00BF94
:1007500008B5012001F0A6F9704700BF704700BF3F
:1007600008B5FFF7FBFFFFF7F7FFBDE80840FFF70D
:1007700071BD00BF074A13681844EFF3088188422F
:1007800002D2106018467047034B0C221A604FF0DB
:10079000FF307047CC0000102C0400100A4C08B544
:1007A00023680546986801F09BFA2368D86801F031
:1007B00097FA00F0DDFE20B905B9FEE7FFF7B6FDB8
:1007C000FBE700F031FFF7E734010010002102F0F1
:1007D000D7BE00BF0649074A074B9A42BEBF51F831
:1007E000040B42F8040BF8E704488047044800472C
:1007F0005C810000C8000010800100101908000092
:1008000071010000FEE7FEE7FEE7FEE7FEE7FEE718
:10081000FEE7FEE7FEE7FEE72B4A202370B4C2F8AE
:10082000A031D2F8A031980645D4274B02210025EB
:100830000124AA2055220B26C3F80411C3F8A8519D
:100840001946C3F8AC51C3F80C41C3F88460C3F82F
:100850008C00C3F88C20C3F88040C3F88C00C3F828
:100860008C20D1F88830184A5B01FAD50321AA20E0
:100870005523C2F88010C2F88C001146C2F88C30A3
:10088000D1F88830104A13F0407FF9D00F49002387
:100890000520C2F80801C2F8C410C2F8C8311368B4
:1008A00070BC23F4704323F03A0343F4405343F005
:1008B0003A0313607047D2F8A0315906B5D4D2F884
:1008C000A0315906F7D5B0E700C00F40DE872804F5
:1008D00008B5154A9368C3F34203012B1ED0022BBF
:1008E00019D1124B596F01310AD0D3F88010986F8B
:1008F000086093F8A61019B9516821F00101516000
:10090000186F0A4B48B193F8A6302BB10021084A62
:100910001368984708BD08BD08BD08BD034A106F9D
:100920000028F9D01946F2E7008009402C03001096
:100930002803001070B50368294CA34249D041DD5B
:10094000284CA3422AD004F58044A34244D1264C2B
:1009500008263ABB01290BD04568244AC5EBC505DA
:1009600002EBC50494F8355094F83620EA4214D1CD
:10097000012202FA01F5D1F1010138BF002102FA8A
:1009800001F15C6824EA05045C6003685B68194255
:1009900003D1B240164BC3F8802070BD154C07261A
:1009A000002AD7D0012505FA01F176B2304605FAC2
:1009B00006F65A680A435A602146FFF73DFD0C4B84
:1009C0001E6070BDA4F58044A34205D10A4C0526E3
:1009D000BFE70A4C0626BCE700242646B9E700BF5D
:1009E0000000014000800940650A00002C0300104F
:1009F00000E100E0D1080000010A0000D10A000077
:100A000008B5154A9368C3F34203012B1DD0022B8E
:100A100018D1124B5968013109D0196998680860DA
:100A200093F8361019B9516821F001015160186826
:100A30000A4B48B193F836302BB10021084A1368AD
:100A4000984708BD08BD08BD08BD044A10680028C5
:100A5000F9D01946F2E700BF00C000402C03001097
:100A60002803001008B5174A9368C3F34203012B0B
:100A700021D0022B1CD1144BD3F8AC1001310BD078
:100A8000D3F8B810D3F8B000086093F8DE1019B9A5
:100A9000516821F001015160D3F8A8000A4B48B118
:100AA00093F8DE302BB10021084A1368984708BD3F
:100AB00008BD08BD08BD044AD2F8A8000028F8D037
:100AC0001946F1E700C009402C030010280300106C
:100AD00008B5154A9368C3F34203012B1DD0022BBE
:100AE00018D1124BD96B013109D0996C186C086080
:100AF00093F86E1019B9516821F001015160986B9B
:100B00000A4B48B193F86E302BB10021084A1368A4
:100B1000984708BD08BD08BD08BD044A906B002871
:100B2000F9D01946F2E700BF000001402C03001085
:100B3000280300102DE9F04F0368884A8DB09342D6
:100B400009908B4600F3F080854A934200F0F780CD
:100B500040F3D780834A934200F09F8002F58042A1
:100B600093420CD1804AD2F8AC1121F44021C2F852
:100B7000AC11D2F8AC1141F48021C2F8AC117B4920
:100B80004FEA0B1209680891089CB1FBF2F102FBD5
:100B9000114289B20491002A00F0B1806100A200E4
:100BA0000123029400240B910A9201930F460392B1
:100BB0000693CDF81CB05E460594DDF81CA00199A3
:100BC0004FF00008D146CDB2DA46C346002F79DB9C
:100BD0000399DDF804E0B1FBF9F464090134C4F3CE
:100BE0004F04DE44002C66D10124B8F1000F67D118
:100BF00004FB0EF0029AC000B2FBF0F00130CAEB29
:100C0000500000F036FFB04206DA504564D0064688
:100C1000CDF81480049406950BF1010B5FFA8BF864
:100C20004545D144D2D8019CD3460F2C4FF0000348
:100C30005DD0029A0899019C0A440B9901340292F2
:100C40000194039A0F440A9C079922445944039241
:100C50000791002BB1D0069B059A099C42EA03102C
:100C60002368C0B2197B049C41F08001C4F30722C1
:100C7000099C1973236804991A7123685FFA81FB30
:100C800083F800B0236883F8280023681A7B02F0F9
:100C90007F021A730DB0BDE8F08F334AD2F8AC1161
:100CA00021F44031C2F8AC11D2F8AC1141F48031DA
:100CB000C2F8AC1163E7B8F1000F99D0012C97D8B6
:100CC000022495E7B7FBF9F42409DDF804E00134C8
:100CD000C4F34F04DE4485E70494019CD3460F2CF3
:100CE0000695CDF8148056464FF00103A1D1059921
:100CF000069A099C41EA0210C0B22368B2E71020AC
:100D0000B0E7A2F5804293427FF439AF164AD2F899
:100D1000A81121F0C001C2F8A811D2F8A81141F021
:100D20004001C2F8A8112AE79B221148114900F09E
:100D3000A3FB099C0A4A236893427FF409AF0A4A3D
:100D4000D2F8A81121F44071C2F8A811D2F8A81164
:100D500041F48071C2F8A81111E700BF00C009403A
:100D6000000001400080094000C00F40D00000108A
:100D70000879000024790000F8B55D1E012D0746B2
:100D80000C46164604D915481549FB2200F074FBA1
:100D9000053C032C1CD8042E14D8013EF6B2032EB9
:100DA0000DD8104B082253F826301B01DBB244EA61
:100DB0008504144323433A68DBB21373F8BD002360
:100DC0001A46F4E708480649FE2200F055FBE4E71E
:100DD00006480349FC2200F04FFBDCE78C79000059
:100DE000247900008C780000D8790000B4790000E4
:100DF000436810B40448054CC3EBC30344F83320E4
:100E000001605DF8044B7047280300102C030010AC
:100E100000B50268137DDB07FCD543680949C3EBC5
:100E2000C30301EBC303596810780131C0B207D086
:100E3000596904335B680B60536843F001035360E6
:100E40005DF804FB2C03001038B54368184AC3EB67
:100E5000C303DB00D1180446C869013011D0183330
:100E60001A445368151D013316D06A696B681268FD
:100E70001A4204D12368187DC0F3801038BD0020C9
:100E800038BD23681B7D9B060CD491F834000F28D5
:100E90008CBF0020012038BD064807492C2200F0F5
:100EA000EBFAE2E7002381F83430012038BD00BFBF
:100EB0002C0300108C7700005C7A000038B50446E3
:100EC0000D462046FFF7C0FF0028FAD02368EDB298
:100ED0001D706268054BC2EBC20203EBC20393F8BC
:100EE0003420013283F8342038BD00BF2C030010B9
:100EF0002DE9F04F0446454D006883B0A8420E46E8
:100F00009046994643D06568002301932A46DFF84E
:100F100008A1EF00C2EBC202781B4FF0000E0AEBF3
:100F2000C0000AEBC20C4FF0FF33C361436071464F
:100F3000724620468CF835E0FFF7FCFC16B903B08A
:100F4000BDE8F08F3249404600F046FB3149834608
:100F5000484600F041FBB21E012A38D9012EEED1DD
:100F6000B8F1FF3FEBD02949226807208B4510726A
:100F700015D1019B9BB11B7C019A254943F040038D
:100F80004046137403B0BDE8F04F00F0F3BA037CA1
:100F9000656803F03F03037462680190B7E77D1B47
:100FA0000AEBC50041460430002200F0B7FA62683F
:100FB0000125C2EBC2020AEBC20320462A460021E9
:100FC00083F8355003B0BDE8F04FFFF7B3BCB9F17B
:100FD000FF3F09D00D4A90420CD0781B0AEBC000AD
:100FE00049461C3000F066FA032EA8D1B8F1FF3F45
:100FF000B9D1A4E7019B002BEFD01A7C484642F000
:1010000080021A74034900F0B5FAEDE700000140D0
:1010100068780000447B00002C0300102DE9F047A5
:101020000F46054608466149164600F0E3FA604956
:101030000446304600F0DEFA0146204600F0BAFAD7
:10104000411C044600F0AB805A4B2860984200F0E7
:10105000838053D9584B984276D003F58043984209
:1010600006D1564BD3F8C42042F00072C3F8C42016
:101070004FF0010984F808902B684FF00008C3F87E
:10108000048028464FF41651FFF754FD42464B4664
:1010900028460821FFF770FE3846444900F06AFAF6
:1010A0003046434900F066FA7A1C03D03846414680
:1010B00000F06AFB731C03D03046002100F064FB93
:1010C0003C4B9C4250D025D93B4B9C4264D003F50D
:1010D00080439C424BD103236B603949C3EBC3036C
:1010E0004FF0FF34284601EBC305224623466C60CF
:1010F000EC610021BDE8F047FFF7FABEA3F580439D
:101100009842B5D12D4BD3F8C42042F00802C3F861
:10111000C420ADE7A3F580439C4228D1284E4FF070
:10112000FF34002169602246234628467460F4613A
:10113000FFF7DEFE234B012429461C6022480822CB
:10114000BDE8F04701F010B81C4BD3F8C42042F0C2
:101150008072C3F8C4208BE7184BD3F8C42042F048
:101160001002C3F8C42083E701236B60B5E76B6806
:101170001349C3EBC3034FF0FF3601EBC3073246FD
:101180003346284600217E60FE61FFF7B1FE0F4B1B
:101190009C42CFD0BDE8F08702236B609DE70C48EE
:1011A0000C495C2200F068F92C6061E7D87A0000F5
:1011B0009C780000000001400080094000C00F4002
:1011C0002C030010240300102404001000C0004071
:1011D000C87A00002479000038B50023036043601A
:1011E0000A7804462F2A01D0204638BD4A78002AC2
:1011F000FAD0481C20604A782F2A14D0B2B18D1C36
:10120000194600E052B125602A782B462F2A01F1B9
:10121000010105F10105F5D10133236000F094FBD4
:101220006060204638BD19460346F5E71146F5E7EC
:101230000068704710B50446406828B100F0A2FB72
:10124000012801D1606810BD002010BD406808B5BC
:1012500028B100F097FBD0F1010038BF002008BD95
:1012600010B50446406830B100F08CFB18B96068D6
:1012700008B1043810BD002010BD00BF4068003028
:1012800018BF0120704700BF00F054B8A0F1400023
:10129000FFF7FABF00F052B8A0F14000FFF7FABF25
:1012A00038B504461D4600F027F8294604F14000F1
:1012B00000F0AAF8054B204603F1080103F12002D3
:1012C000543321602264636438BD00BF787B000022
:1012D00001EB410100EBC1000830011D08B54B696D
:1012E00023B1406808B10431984708BD4368002B1A
:1012F000FBD0984708BD00BF70B504460B4E0023D5
:10130000251D4FF41650E06363602846A360E36038
:1013100023626362A3632660FFF780FE28462246AD
:101320000349FFF765FD204670BD00BF707B0000DC
:10133000D11200000430FFF76BBD00BF10B50430C0
:101340000C46FFF7BBFD204610BD00BF00207047D4
:10135000F8B58E18B1420F4605460FD00C4601E095
:10136000A64209D02B6828465B6A14F8011B9847EF
:101370000130F5D1E01BF8BDF01BF8BD0020F8BD31
:10138000F8B58E18B1420F4605460FD00C4603E063
:1013900004F8010BA64207D02B6828469B6A9847A1
:1013A000431CF5D1E01BF8BDF01BF8BD0020F8BDD3
:1013B00000207047002070470020704700207047D1
:1013C00010B5074B044603F108023C3380E80C00DB
:1013D000406900F0CDFB204600F0D6FA204610BD53
:1013E000D87B0000A0F10400FFF7EABF10B5044667
:1013F000FFF7E6FF204600F03AFB204610BD00BF95
:10140000A0F10400FFF7F2BF10B584B0044600F06D
:10141000EBFA0B4B002203F108013C3384E80A008D
:10142000626101A82246074902F03EF9064901A877
:1014300000F056FD6061FFF7C9F9204604B010BD09
:10144000D87B000058780000207C00000EB430B536
:1014500082B005AB53F8045B04464069019300F089
:101460003FFC29466069019A01F06EF802B0BDE8C0
:10147000304003B0704700BF10B40C46134601461D
:10148000224602485DF8044B00F002B8247C0000BC
:101490000FB400B5064A83B004AB126853F8041BBE
:1014A000D0681A46019301F04FF8012000F0FAFAD3
:1014B0003401001038B50D46044600F0FFF8013540
:1014C00009D02046002100F015F920460321BDE88F
:1014D000384000F00BB938BD38B50D46044600F071
:1014E000EDF801350FD0236801330DD02369626810
:1014F00020461A60012100F0FDF820460221BDE8D7
:10150000384000F0F3B838BD024803492422FFF701
:10151000B3FFEBE78C770000A477000070B50D46B1
:101520001646044600F0CAF8013514D0236801338A
:1015300012D066B9236962681A602046012100F062
:10154000D9F820460221BDE8704000F0CFB8E3682A
:1015500062681A60F1E770BD034804492422FFF76E
:101560008BFF002EE6D0F2E78C770000A477000016
:1015700000F066B8431C10B5044618D00B68581C20
:1015800004D10FE051F80C3F5A1C0BD09C42F9D10A
:101590002046896800F0D0F820460221BDE81040BE
:1015A00000F0F2B80248BDE81040FFF771BF10BD6F
:1015B000587C0000884208B50AD0431C07D001318E
:1015C00006D00448FFF764FF4FF0FF3008BD08461F
:1015D00008BD00BF6C7C00000B685A1C04D107E0FA
:1015E00051F80C3F5A1C03D08342F9D14868704728
:1015F0001846704708B5431C0CD00B685A1C04D120
:1016000009E051F80C3F5A1C05D09842F9D14868BE
:10161000411C00D008BD0348FFF73AFF4FF0FF30F0
:10162000F8E700BF807C000030B585B018246D4617
:1016300020462946ABBE0446204605B030BD00BF5B
:10164000024B186800F00100704700BFF0ED00E0A9
:1016500038B5054600F008F9044600F005F9001B0E
:10166000A842FAD338BD00BF08B5044905F0FEFE14
:1016700006F04CF8BDE80840FFF7EABF00247449C3
:101680004FF47A7303FB00F0FFF7E2BF431C10B581
:10169000044608D02046002100F04EF804F01F0454
:1016A0000120A04010BD034803491522FFF7E4FEC6
:1016B000F0E700BFC07C0000D47C000038B50446D1
:1016C0004B1C0D4621600FD00846FFF7DFFF25F0C9
:1016D0001F0505F1180105F11C0205F114036060F6
:1016E000A560E1602261636138BD00BF006800F061
:1016F0004BB800BF38B50368044601330D4610D01F
:1017000045B1012D05D1A368626819680A431A60C2
:1017100038BD38BDA36861681A6822EA01021A6000
:1017200038BD034803492C22FFF7A6FEE8E700BFB7
:101730008C770000D47C000038B5431C04460D466D
:1017400017D004F16040A0F51C2000F00F035B00EF
:1017500003229A409D4003099B0003F1804303F557
:101760003033196821EA02021A601A6815431D60B5
:1017700038BD034803491522FFF77EFEE1E700BFAD
:10178000C07C00003C7D000038B5431C04460D467B
:101790002CD004F16040A0F51C2000F01F04C5F31C
:1017A000800202FA04F443099B0003F1804303F52D
:1017B0003033996E21EA04019966996E0C439C6658
:1017C0009AB900F00F035B0003229A4005FA03F375
:1017D0000009800000F1804000F53030016C21EA02
:1017E00002020264026C1343036438BD02480349D9
:1017F0002022FFF741FECCE7C07C00003C7D0000CA
:10180000134A38B513680BBB12490124D1F8C450F0
:101810001460114A114845F40005C1F8C45013671B
:10182000036801F1437101F5F45103319B08A1FBF9
:1018300003039B0C013B022151600420D360084943
:101840005460FEF7F9FD074B10221A6038BD00BF47
:101850000C04001000C00F4000400940D0000010F0
:10186000111A000000E100E008B5044B1B680BB939
:10187000FFF7C6FF024B986808BD00BF0C040010BC
:1018800000400940034B98615A6942F001025A61D5
:10189000704700BF00400940024B5A6922F0010224
:1018A0005A61704700400940014B01221A6070479D
:1018B00000400940094A8368026053B1084B1A6826
:1018C000824201D106E01A4653688342FBD1436845
:1018D0005360704742681A60704700BFA87D0000DF
:1018E000100400100C4A836810B50446026053B11E
:1018F0000A4B1A68904201D10AE01A4653689C428A
:10190000FBD163685360204600F0B1F8204610BD5B
:1019100042681A60F7E700BFA87D000010040010BD
:10192000074B10B400240273816080E8180019B1DD
:10193000044B1A68186042605DF8044B704700BFA2
:10194000A87D0000100400100D4B70B51C68064601
:101950000D4614B912E0646884B1A36831462A4682
:101960001846002BF7D001F044FF0028F3D1A068FF
:1019700001F037FFA842EED1204670BD002070BDB7
:1019800010040010007B704710B5074B044603F1AC
:1019900008023433226040F8043FFFF78BFF2046F3
:1019A000FEF782FD204610BDB07D0000A0F10400CE
:1019B000FFF7EABF094B10B503F1080204463433C0
:1019C000226040F8043FFFF775FF2046FEF76CFDEC
:1019D000204600F04CF8204610BD00BFB07D00004E
:1019E000A0F10400FFF7E6BF074B10B50022044644
:1019F00040F8043BFFF794FF044B204603F1080234
:101A0000343384E80C0010BD30780000B07D000055
:101A1000014800F003B800BF047E000038B5036839
:101A20000446DB68984763685B6883B122681D6879
:101A300053689847281A002862680CDC50681168BF
:101A4000836853600029F0D040688847EBE723683B
:101A50009B68984738BD236852681B69106898478F
:101A600038BD00BF0B460146184600F007B800F02D
:101A700065BB0028B8BF40427047000010B5054C58
:101A800013462CB10A4601460220AFF3008010BD78
:101A9000204610BD00000000014B1868704700BFD1
:101AA0003401001008B5074B044613B10021AFF311
:101AB0000080054B1868836A03B198472046FEF7FB
:101AC0006DFE00BF00000000707E000070B505468E
:101AD0000C4609B9002070BD18B183690BB900F03C
:101AE00051F9204B9C4201D16C6808E01E4B9C428E
:101AF00001D1AC6803E01D4B9C4208BFEC68B4F90F
:101B00000C30002BE6D02146284600F039F8236B34
:101B1000064633B1216A284698470028B8BF4FF0DF
:101B2000FF36A3891B0603D52169284600F030FB48
:101B3000616B41B104F14403994202D0284600F0A0
:101B400027FB00236363A16C21B1284600F020FB32
:101B50000023A36400F082F90023A38100F07FF941
:101B6000304670BD0C7E00002C7E00004C7E0000D4
:101B7000024B01461868FFF7A9BF00BF34010010EF
:101B80008A892DE9F041054610070C4659D44B6867
:101B9000002B02DC0B6C002B17DDE66AAEB102F401
:101BA0008052002392B22F682B600AB1606D15E05D
:101BB000216A01232846B047411C0FD12B686BB125
:101BC0001D2B01D0162B03D12F600020BDE8F08122
:101BD000A38943F04003A381BDE8F081A3895A079C
:101BE00005D56368C01A636B0BB1236CC01A002360
:101BF0000246E66A216A2846B047431CA38906D1FB
:101C000029681D2939D8204ACA40D60735D500226F
:101C100062602269D904226004D5421C01D12B687C
:101C200003B96065616B2F600029CED004F14403D5
:101C3000994202D0284600F0ABFA00206063BDE86C
:101C4000F0810F69002FC0D093070E680CBF4B695D
:101C50000023C7EB06080F608B6002E00744C0EB6F
:101C60000808B8F1000FB0DD43463A46216A28461D
:101C7000A66AB0470028F1DCA38943F04003A381A2
:101C80004FF0FF30BDE8F0810100402038B50B690E
:101C900005460C46DBB118B183690BB900F072F848
:101CA0000C4B9C4201D16C6808E00B4B9C4201D16B
:101CB000AC6803E0094B9C4208BFEC68B4F90C30F7
:101CC0002BB121462846BDE83840FFF759BF002018
:101CD00038BD00BF0C7E00002C7E00004C7E000052
:101CE000014620B9044B0549186800F08FB9044B30
:101CF0001868FFF7CBBF00BF707E00008D1C00008E
:101D000034010010014900F081B900BF8D1C0000B2
:101D100010B50446002303604360836081814366FD
:101D2000C281036143618361194608225C3000F07F
:101D300026FA054B24626362044BA362044BE36200
:101D4000044B236310BD00BF453700006B37000014
:101D5000A3370000C737000070B568234D1E5D43F0
:101D60000E4605F1740100F057FA044640B1002117
:101D700080E842000C30A06005F1680200F0FFF935
:101D8000204670BD836910B5044633BB8364C364C9
:101D90000365124B124A1B688262984204BF0123FA
:101DA000836100F01FF86060204600F01BF8A0601F
:101DB000204600F017F80022E06004216068FFF779
:101DC000A7FF01220921A068FFF7A2FF022212212A
:101DD000E068FFF79DFF0123A36110BD707E000046
:101DE000051D0000F8B51C4B07461E68B36913B902
:101DF0003046FFF7C7FF4836B4687368013B04D428
:101E0000B4F90C507DB16834F8E733680BB136682B
:101E1000F2E704213846FFF79FFF30600028F6D133
:101E20000C233B60F8BD4FF6FF73E3810123A381D0
:101E300065662560A560656025616561A56108220C
:101E4000294604F15C0000F09AF96563A563A56476
:101E5000E5642046F8BD00BF707E00007047704703
:101E6000F7B50F46114601AA054603F03DFB0646AD
:101E700008B9002029E02846FFF7B4FF04460028EF
:101E8000F7D04FF4DB73019A3946284601F0FEFA89
:101E9000002806DA0025FFF7E1FFA581FFF7DFFF45
:101EA000E7E70B4BE08163620A4BA681A3620A4B12
:101EB0002462E362094B2363F30505D50223002264
:101EC0002146284600F014F8204603B0F0BD00BFBC
:101ED000453700006B370000A3370000C73700000C
:101EE000024B0A4601461868FFF7BABF34010010DA
:101EF00000F000B82DE9F8430C4690461E46054612
:101F000018B183690BB9FFF73DFF3D4B9C4201D1EE
:101F10006C6808E03B4B9C4201D1AC6803E03A4B53
:101F20009C4208BFEC68A38903F48473B3F5847FF3
:101F300003D121462846FFF7A9FEE76A0FB91D2302
:101F40002BE0012E04D0022E2BD056B3162324E012
:101F500021462846FFF79AFEA28902F4805292B2E7
:101F60000AB1606D05E0216A33462846B847411C36
:101F700014D0A3895A0706D56368C01A636B4BB1A6
:101F8000236CC01A06E01B0704D5236813B122692D
:101F90009B1A18448044002603E02B604FF0FF3961
:101FA0002BE023691BB92146284600F073F821462F
:101FB0002846FFF76BFE81460028EFD133464246A4
:101FC000216A2846B8470130E8D0616B41B104F17D
:101FD0004403994202D0284600F0DAF800236363F4
:101FE000236900212360A389616023F40263A38134
:101FF000082204F15C0000F0C2F84846BDE8F8830E
:102000000C7E00002C7E00004C7E00002DE9F84381
:102010008046894600F14804002694B1A5686768A7
:10202000013F0CD4AB89012B07D9B5F90E30013330
:1020300003D029464046C84706436835F0E7246880
:10204000EBE73046BDE8F8830E4B70B51E460E4CEC
:102050000025E41AA410A54204D056F8253098476C
:102060000135F8E705F078FB084B094C1E46E41AE9
:10207000A4100025A54204D056F825309847013514
:10208000F8E770BD740100107401001074010010B5
:102090007C010010F0B58B8991B09D0706460C4677
:1020A00025D4B1F90E10002908DAA389002513F010
:1020B000800F14BF40274FF480670DE001AA03F0A2
:1020C0004BFA0028F1DB029D4FF4806705F4704560
:1020D000A5F500514D424D413946304600F09CF87F
:1020E00060B9A3899A051DD443F00203A38104F1CA
:1020F0004703236023610123636113E00A4BB3624A
:10210000A389206043F08003A381206167614DB102
:10211000B4F90E10304603F04FFD18B1A38943F017
:102120000103A38111B0F0BD051D0000024B014663
:10213000186800F071B800BF34010010024B01466E
:10214000186800F025B800BF3401001010B5C9B2FE
:1021500002449042034605D01C7801308C42F8D1ED
:10216000184610BD002010BD10B5431E0A44914210
:1021700004D011F8014B03F8014FF8E710BD0346F6
:102180000244934202D003F8011BFAE770470000B3
:1021900030B500293CD051F8042C0B1F1D49002AF2
:1021A000B8BF9B180A680C4612B95A600B6030BD64
:1021B0009A420DD919685818824201BF10685268B6
:1021C000091819605A60236030BD994203D80A4645
:1021D00051680029F9D1146815199D420AD11B686C
:1021E0002344D0188142136012D10868034413605D
:1021F0004B680CE002D90C23036030BD18681C1832
:10220000A14201BF0C684968001918605960536009
:1022100030BD00BF2004001070B5CD1C25F00305B3
:1022200008350C2D38BF0C25002D064603DA0C238B
:102230003360002070BDA942F9D81F4B1C681A46B4
:102240002146A1B10B685B1B0ED40B2B03D90B608D
:10225000CC18CD501EE08C420BBF63684B681360F6
:10226000636018BF0C4615E00C464968E9E7134C5B
:1022700023681BB9304601F043F9206029463046F7
:1022800001F03EF9431CD2D0C41C24F00304A04248
:102290000AD1256004F10B00231D20F00700C31AAA
:1022A00009D05A42E25070BD211A304601F028F997
:1022B0000130EED1BBE770BD200400101C040010FB
:1022C000936810B4013B002B936008DA9469A34231
:1022D00002DBCBB20A2B02D110BC02F0FFB91368AB
:1022E000581C10601970C8B210BC7047F8B506468B
:1022F0000F461446D518AC4208D03A4614F8011BD4
:102300003046FFF7DDFF431CF5D100E00020F8BDAB
:102310002DE9F04F9DB00C4617460393064618B1C1
:1023200083690BB9FFF72EFD7F4B9C4201D1746886
:1023300008E07E4B9C4201D1B46803E07C4B9C4298
:1023400008BFF468A38918070CD5236953B100238B
:10235000099320238DF8293030238DF82A30DFF8B7
:10236000D4B144E02146304602F01EFA0028EED0F7
:102370004FF0FF30D5E0039A111D12680391002A37
:1023800080F28C80524243F002000792049098F849
:1023900000302E2B00F08480032298F8001065484E
:1023A000FFF7D4FE48B14023CBEB000003FA00F066
:1023B000049B08F101081843049098F800100622C5
:1023C0005D4808F101078DF82810FFF7BFFE0028CF
:1023D00000F09580594B002B40F08880039B073319
:1023E00023F0070308330393099B53440993B8462A
:1023F000454615F8013B1BB9B8EB07090FD003E0C0
:10240000252BF9D0A846F3E74B463A4621463046FD
:10241000FFF76CFF01307FD0099B4B44099398F87C
:102420000030002B78D000234FF0FF320493079345
:10243000059206938DF853301A93012705222978C7
:102440003F48FFF783FE05F10108049B38B13C4A81
:102450004546801A07FA00F018430490EEE7D906C3
:1024600044BF20228DF853201A0744BF2B228DF839
:1024700053202A782A2A3FF47EAF079A00210A20A7
:10248000A84698F800300135303B092B03D800FBF3
:1024900002320121F4E700293FF479AF079276E791
:1024A00098F801302A2B0BD1039B08F102081A1D62
:1024B0001B680392002BB8BF4FF0FF3305936BE707
:1024C00000231946059308F101000A25804698F873
:1024D00000200130303A092A03D805FB01210123ED
:1024E000F4E7002B3FF458AF059155E703AB009399
:1024F0002246144B04A9304600F0C2F807E003ABB3
:10250000009322460F4B04A9304600F065FBB0F162
:10251000FF3F82467FF468AFA3895B063FF528AF93
:1025200009981DB0BDE8F08F0C7E00002C7E0000E5
:102530004C7E00007A7E00007E7E00008126000036
:10254000747E0000ED22000013460A460146024850
:102550000068FFF7DDBE00BF340100102DE9F04731
:1025600088B0149F002B1E461299B8BF03F1004398
:1025700027F02007B6BF1E4600232D23462F144602
:10258000109DDDF84CA00B7003D0452F03D1013511
:1025900001E0032300E0022307AA049206AA0392A3
:1025A0008DE828042246334602F006FA472F80467B
:1025B00002D1119BDB0728D5462F08EB050911D165
:1025C00098F80030302B0AD10022002320463146F3
:1025D00004F082FE18B9C5F10105CAF80050DAF816
:1025E00000309944002200232046314604F074FE56
:1025F00008B9302202E0CDF81C9006E0079B99450F
:1026000003D9591C07911A70F8E74046079B159AA1
:10261000C8EB0303136008B0BDE8F087034673B549
:102620000029B8BF494203F8022BB4BF2D222B2248
:10263000092942701ADD0DF1070216460A2591FBA1
:10264000F5F405FB1411092C01F1300102F8011D0C
:102650002146F4DC3031541E02F8011CB4421A4603
:102660000AD214F8012B03F8012BF7E71A4630249D
:10267000214402F8024B5970101A02B070BD0000DC
:102680002DE9F04F8FB00C4616461F46DDF86080EE
:10269000054603F0A1FAD0F800B0584601F0A1F8C1
:1026A00000230C93D8F800300890073323F0070379
:1026B00003F1080294F81890C8F80020D3E9002329
:1026C000C4E91223D4E9120100F0F2FE012819D165
:1026D000D4E912010022002304F008FE10B12D23DA
:1026E00084F843309A4B9B4AB9F1470F8CBF904610
:1026F000984603232361236823F0040323604FF0EB
:10270000000A93E0D4E9120100F0D2FE236848B930
:10271000914A9249B9F1470F8CBF884690460322EF
:102720002261E9E7D4F804E0D4E91201BEF1FF3FE9
:1027300001D106220AE0B9F1670F02D0B9F1470FC3
:1027400005D1BEF1000F40F0B68101226260002287
:1027500043F4806306920CAA2360059201930BAAAE
:10276000636803920DF12B020292009302460B461E
:10277000CDF810902846FFF7F1FE09F0DF03472B54
:10278000804609D10B9BD81C02DB6268934230DD86
:10279000A9F102095FFA89F9B9F1650F0B9912D80D
:1027A00001394A4604F150000B91FFF737FF0C9AAC
:1027B00082468318012A236102DC2268D1072FD5C3
:1027C000013323612CE0B9F1660F14D1002963684D
:1027D00007DD216113B92268D2071DD501330B44EF
:1027E00019E013B92268D00701D5023313E00123A1
:1027F00011E04FF067090B9B0C9A934205DB2268AE
:102800002361D10708D5013305E0002BD4BFC3F104
:1028100002030123134423610B9B4FF0000AA365BD
:102820009DF82B3013B12D2384F8433000973346A5
:102830000DAA2146284600F059F9013002D14FF087
:10284000FF3050E123685A0501D4236965E0B9F1EE
:10285000650F40F2D580D4E912010022002304F074
:102860003BFD78B301233E4A31462846B847013044
:10287000E5D00C9B0B9A9A420BDB2368D80708D44F
:1028800023689B0740F111814FF0000804F11909FA
:1028900006E1089B5A4631462846B8470130CED05B
:1028A0004FF0000804F11A090C9B013B9845E7DA48
:1028B00001234A4631462846B8470130BFD008F1C7
:1028C0000108F1E70B9B002B29DC0123244A314648
:1028D0002846B8470130B2D00B9B23B90C9B13B9E3
:1028E0002368D907CCD5089B5A4631462846B847B5
:1028F0000130A4D04FF0000904F11A0A0B9B5B428F
:10290000994509DA0123524631462846B847013035
:1029100095D009F10109F1E70C9B4246A7E00C9A1A
:10292000A36D9A42A8BF1A46002A914607DC04F11B
:102930001A034FF0000A29EAE97909931CE01346CB
:10294000314642462846B8470130F0D177E700BF0C
:10295000857E0000897E00008D7E0000917E000053
:10296000DE7E00000123099A31462846B84701302F
:102970003FF465AF0AF1010AA36DC9EB030292456A
:10298000F0DB08EB03090B9A0C9B9A420FDB2368E0
:10299000DA070CD40C9B0B9A9844C9EB08089B1AD5
:1029A0009845A8BF9846B8F1000F08DC0FE0089BD7
:1029B0005A4631462846B8470130EBD13FE74346F7
:1029C0004A4631462846B84701303FF438AF4FF009
:1029D000000928EAE87804F11A0A09E001235246BE
:1029E00031462846B84701303FF429AF09F10109C3
:1029F0000B9A0C9B9B1AC8EB03039945EEDB3FE750
:102A00000C9A012A01DCDB0738D501234246314606
:102A10002846B84701303FF412AF089B5A4631466A
:102A20002846B84701303FF40AAFD4E9120100222A
:102A3000002304F051FC20B14FF0000804F11A0902
:102A40000EE00C9B08F10102013B19E001234A460C
:102A500031462846B84701303FF4F1AE08F101088D
:102A60000C9B013B9845F1DB534604F15002314683
:102A70002846B84701307FF403AFE0E64246012321
:102A800031462846B8470130EED1D8E601234A4600
:102A900031462846B84701303FF4D1AE08F101086D
:102AA000E3680D9A9B1A9845F0DBE0680D9B98420D
:102AB000B8BF184617E0002206920CAA05920BAA8E
:102AC00043F4806303920DF12B0223600292019381
:102AD0000246CDF81090CDF800E00B462846FFF7EF
:102AE0003DFD80464EE60FB0BDE8F08F2DE9F04782
:102AF00091461F460A698B6806469342B8BF134643
:102B0000C9F8003091F843200C46DDF8208012B15E
:102B10000133C9F800302368990642BFD9F8003064
:102B20000233C9F80030256815F0060510D104F10C
:102B3000190A07E00123524639463046C0470130A2
:102B40001AD00135E368D9F800209B1A9D42F1DBC9
:102B500094F843302268003318BF012392060FD542
:102B6000E118302081F843005A1C94F845102244A3
:102B7000023382F8431003E04FF0FF30BDE8F087E6
:102B800004F1430239463046C0470130F4D0226890
:102B9000D9F80050E36802F00602042A08BF5D1B62
:102BA0002269A3680CBF25EAE57500259342C4BFDE
:102BB0009B1AED184FF000091A344D4509D0012336
:102BC000224639463046C0470130D5D009F10109C7
:102BD000F3E70020BDE8F0872DE9F04317460A7EB1
:102BE00085B06E2A984606460C460C9B01F1430EB2
:102BF00000F0AE8011D8632A22D009D8002A00F054
:102C0000BB80582A40F0CA8081F84520834955E0AE
:102C1000642A1ED0692A1CD0C0E0732A00F0B0805C
:102C200009D86F2A2ED0702A40F0B8800A6842F086
:102C300020020A603EE0752A24D0782A3AD0ADE01E
:102C40001A6801F14205111D1960136884F84230B9
:102C5000A8E021681A6811F0800F02D0111D1960D8
:102C600008E011F0400F02F10401196002D0B2F93E
:102C7000003000E01368002B3CDA2D225B4284F820
:102C8000432037E021681A6811F0800F02D0111D2F
:102C9000196007E011F0400F02F10401196001D042
:102CA000138800E01368227E5C496F2A14BF0A2251
:102CB00008221BE078225A4984F8452022681868C7
:102CC00012F0800F00F104051D6003D1550601D5F7
:102CD000038800E00368D00744BF42F0200222606E
:102CE0001BB9226822F0200222601022002084F802
:102CF000430001E049490A226568002DA56008DB10
:102D0000206820F0040020602BB9002D7DD175468D
:102D10000CE0002B79D07546B3FBF2F002FB1033C8
:102D2000CB5C05F8013D03460028F5D1082A0BD1FC
:102D30002368DA0708D5236962689A42DEBF302328
:102D400005F8013C05F1FF35C5EB0E0323612EE0CC
:102D500008681A6810F0800F496903D0101D1860C8
:102D6000136808E010F0400F02F1040018601368C7
:102D700001D0198000E0196000232361754616E038
:102D80001A68111D19601568002162682846FFF74E
:102D9000DDF908B1401B6060636804E004F142059E
:102DA00084F8422001232361002384F84330CDF8C6
:102DB00000803B4603AA21463046FFF797FE0130CC
:102DC00002D14FF0FF3026E023692A4639463046CB
:102DD000C0470130F5D023689B0710D5002504F1CA
:102DE000190907E001234A4639463046C0470130F9
:102DF000E7D00135E368039A9B1A9D42F2DBE06855
:102E0000039B9842B8BF184605E00B7804F14205D1
:102E100084F842308AE705B0BDE8F083957E000073
:102E2000A67E00002DE9F04F9A468B6816465A1E82
:102E3000B2F5AE7F88BF6FF4AE7287B082BF9B18C9
:102E4000019340F25D13884696BF00238B60019387
:102E50000B684FF0000B43F4F06348F81C3B074647
:102E60000C4645465A46D946CDF810B0CDF80CB0C0
:102E7000CDF808B0A168002900F0E58033681B7820
:102E8000492B70D016D8392B0DD8312B40D22D2B91
:102E900046D002D82B2B43D0D5E02E2B00F09280C9
:102EA000302B23D0CFE0452B00F09580462B77D0F8
:102EB000412B0CE0652B00F08E800AD8542B75D086
:102EC00002D84E2B34D0BEE0592B75D0612B46D0A2
:102ED000B9E06E2B2CD004D8662B61D0692B42D080
:102EE000B1E0742B62D0792B66D0ACE0206810F48E
:102EF000807F0DD0019B20F08000206009F1010946
:102F0000002B00F08780013B01310193A16081E03B
:102F100012EB0B0F40F09780216821F4C07105E09F
:102F20002168080640F18F8021F0800121606FE068
:102F30006AB9B9F1000F0CD1216801F4E060B0F575
:102F4000E06F06D121F4F0612160012260E0022AE5
:102F50005DD0BBF1010F1ED0BBF1040F1AE0012AB6
:102F600071D1022254E0BBF1000F0ED1B9F1000F74
:102F70006CD1216801F4E060B0F5E06F6AD121F412
:102F8000F06121604FF0010B42E0BBF1030F02D072
:102F9000BBF1050F57D10BF1010B5FFA8BFB37E04B
:102FA000BBF1020F4FD14FF0030B31E0BBF1060F25
:102FB00049D14FF0070B2BE0BBF1070F43D14FF086
:102FC000080B25E0216888053DD521F4207121609A
:102FD000CDF808901CE0216801F4A060B0F5806F86
:102FE00004D048052FD5B9F1000F33D0880558BF5C
:102FF000029821F4F06158BFC0EB090041F4C071A0
:103000005CBF0390049521604FF0000900E00322AB
:103010002B700135A368013BA36023690133236151
:103020007368013B002B736003DD33680133336049
:1030300020E7D4F880313146384605929847059A02
:1030400000283FF417AFB9F1000F03D0236823F431
:1030500080732360013A012A0ED845450AD9D4F875
:103060007C31324615F8011D384698472369013BEB
:103070002361F2E70126AAE00BF1FF33062B22D8E9
:10308000BBF1020F12D9ABF1030B5FFA8BFBCBEB59
:10309000050B5D4517D0D4F87C31324615F8011D7B
:1030A000384698472369013B2361F2E74545E1D95A
:1030B000D4F87C31324615F8011D3846984723690B
:1030C000013B2361F2E72368DA052CD55B050CD5BB
:1030D0004545CFD9D4F87C31324615F8011D384624
:1030E00098472369013B2361F2E715F8011C236926
:1030F000652903F1FF3305F1FF3B23610DD045291D
:103100000BD0D4F87C31324638469847236915F8FD
:10311000021C013BA5F1020B2361D4F87C3132463D
:10312000384698475D46266816F010064ED12E7038
:10313000236803F4C063B3F5806F05D1029BC3EB32
:1031400009035A4263B915E0039B9BB104990A2312
:1031500032460131384601F083F9039B049DC21ABF
:1031600004F26F139D4228BF04F5B7751A4928462B
:1031700000F09AFA00224146384600F071FB2268BE
:10318000804612F0020F8946DAF8003003D01A1D8B
:10319000CAF8002006E012F0040F03F10402CAF896
:1031A000002003D01B68C3E900890BE01D6800F014
:1031B0007FF910B900F074FA03E04046494604F084
:1031C00005F92860E3680133E36000E0002630463B
:1031D00007B0BDE8F08F00BFB77E00002DE9F843CF
:1031E00015468A6880460C4632B98A69002A0CBFA7
:1031F00001224FF0FF328A602268DFF8A890D106E2
:1032000058BF1A684FF000065EBF111D196017689D
:10321000A069F8B923680136DA065EBF2B681B780F
:103220003B702A686B6802F101022A60A26803F110
:10323000FF3302F1FF326B6058BF0137A260E2B189
:10324000002BE5DCD4F88031294640469847002819
:10325000DED012E0012806D12B681A7863699B5CE6
:10326000002BD7D119E0022807D12B68D9F800200C
:103270001B7813445B781B07CCD5236813F010032D
:1032800005D1E2680132E260A26902B13B702369B4
:1032900000201E442661BDE8F883002EEDD1BDE874
:1032A000F88300BF380100102DE9F04F0C469A4614
:1032B000724B87B08346164693E8070003ABA768B6
:1032C00083E807006E4BA1696E4A04F11C090329CB
:1032D00018BF1A467B1EB3F5AE7F84BF40F25D1364
:1032E000A360236888BF6FF4AE7543F45063236016
:1032F0004B4600928CBF7F1900274FF000083168C1
:10330000019303AB53F8280002220978FEF71EFF51
:10331000019B002833D0B8F1010F0BD162682AB9A4
:1033200008226260226842F400722260226822F45D
:10333000A0620CE0B8F1020F0AD1226802F4C06169
:10334000B1F5007F1BD11021616042F480722260D0
:10335000A268511EA16092B132685D1C511C31609F
:1033600012781A707368013B002B736006DCD4F886
:103370008031314658469847002841D12B4608F104
:103380000108B8F1030FBAD162680AB90A22626073
:1033900062683D496069891A019300F0C1F8019B98
:1033A0004FF000081D46A36863B3316860690A786E
:1033B000805C38B3302A226808D1100506D508F1A0
:1033C000010857B10133013FA36006E022F4106207
:1033D00022600B78013505F8013C7368013B002B36
:1033E000736003DD33680133336005E0D4F8803166
:1033F00031465846984728B9A368013BA360D2E7F5
:103400004FF000082368D9050CD54D4508D915F8AB
:10341000011C6F1ED4F87C313246584698473D4611
:103420004D4527D0226812F010021BD12A70636824
:1034300049465846009EB0472268DAF8003012F03C
:10344000200F07D1D20705D51A1DCAF800201B6826
:10345000188004E01A1DCAF800201B681860E36891
:103460000133E3602369C9EB050545441D4425612B
:10347000002000E0012007B0BDE8F08FBC7E000016
:103480006D45000061440000D87E000038B5074C4F
:10349000054608461146002222601A46FDF740F80C
:1034A000431C02D1236803B12B6038BD2C040010EB
:1034B00031F0004310B51BD00F4AA1F5801494429F
:1034C00010D901F1FF410C4A01F5E001914209D9FF
:1034D000B3F5801F08D3094A934207D1B0FA80F0B0
:1034E000400910BD042010BD032010BD002010BDF8
:1034F0000028E6D1022010BDFFFFDF7F0000F07F33
:1035000038B5064C0023054608462360FDF732F91E
:10351000431C02D1236803B12B6038BD2C0400107A
:1035200070B50B78441E5E2B13BF4A1C8A1C4B7867
:10353000002108BF012100F1FF0504F8011FAC4282
:10354000FBD10BB9501E70BD81F001041146C4546B
:103550000D784A1C2D2D06D05D2D0FD00DB12B46B8
:10356000F4E7084670BD4E785D2EF8D0B342F6DC25
:10357000023101339E42C454FBDCE9E7104670BDC2
:1035800000294FF480630CBF0222002200F000B833
:103590002DE9F0411D463D4B04461E680F469046FE
:1035A00026B1B36913B93046FEF7ECFB384B9C42A9
:1035B00001D1746808E0374B9C4201D1B46803E044
:1035C000354B9C4208BFF468B8F1020F59D8002D62
:1035D00057DB21463046FEF759FB00236360A361A9
:1035E000A3891B0603D521693046FEF7D1FDA389C7
:1035F000B8F1020F23F08303A38112D037BB002D53
:1036000008BF4FF480652846FEF790FD0746C8B90D
:103610004FF48060FEF78AFD074688B94FF0FF300F
:1036200000E00020A38943F00203A3810023A360EC
:1036300004F147032360236101236361BDE8F08146
:103640004FF48065A38943F08003A381B8F1010F93
:1036500005D1A38943F00103A3816B42A3610F4B02
:10366000B362A389276003F0080080B22761656117
:1036700048B113F0030F18BF0025A5600020BDE876
:10368000F0814FF0FF30BDE8F08100BF3401001041
:103690000C7E00002C7E00004C7E0000051D00000A
:1036A000004870470000C07F0EB400B54FF40271AF
:1036B0009CB0ADF814106FF00041049107914FF6E3
:1036C000FF711DAB02900690084853F8042BADF82B
:1036D0001610006802A9019302F024FF029B002249
:1036E0001A701CB05DF804EB03B070473401001091
:1036F0000EB430B59CB01FAC4FF4017254F8045BAB
:10370000ADF814200290069000F06BF80B4B03907C
:103710000B9300230F9314934FF6FF730790084801
:10372000ADF816302A46234602A90068019403F03A
:1037300049F81CB0BDE8304003B07047673700005F
:103740003401001010B50C46B1F90E1003F088F9E1
:103750000028ABBF636DA3891B1823F48053ACBF53
:103760006365A38110BD002070472DE9F0411F461D
:103770008B890546DB050C46164605D5022300223B
:10378000B1F90E1002F02CFAA389324623F48053CB
:10379000A381B4F90E103B462846BDE8F04100F085
:1037A000F1BF10B50C46B1F90E1002F019FA431C26
:1037B000A38915BF606523F4805343F48053A3812C
:1037C00018BFA38110BDB1F90E1001F059B810F85F
:1037D000012B11F8013B012A28BF9A42F7D0D01AD9
:1037E0007047034613F8012B002AFBD1181A013841
:1037F000704730B582B1451E013915F8013F11F807
:10380000014FA34206D1EC431444E04201D0002B07
:10381000F3D11C46181B30BD104630BD2DE9F041D8
:103820000F46904602F0CEFC04460D46B8F1000F5C
:1038300011D0C7F30A53C3F16B03002B0BDD1B053B
:1038400003F17F55002405F5401522462B4603F071
:10385000DBFABDE8F08120462946BDE8F081000092
:103860002DE9F04F82460C469DB000231392189329
:103870004FF000084FF000091791179B1A780D2A96
:1038800005D8092A13D2002A00F0AD8112E02B2AB4
:1038900004D02D2A04D0202A0CD108E0002200E018
:1038A00001220C925A1C17925B782BB99BE10133D1
:1038B0001793E2E700230C93179D2B78302B5CD1F4
:1038C0006B78582B01D0782B4CD10C9BA84A0193D4
:1038D00018AB009317A919AB504601F09AFE10F0EF
:1038E0000706044600F08585062E05D10135002324
:1038F00017950C9300F07DBD189A3AB135211AA89E
:1039000002F047FD1899504602F0CCF9062E22D855
:10391000DFE806F0040D08181D0D04004FF0000943
:10392000C84618E0DDF86880DDF86C9013E01B9B5A
:10393000199A23F4801302F23342DDF8688043EAD7
:10394000025908E0DFF82C924FF0000803E06FF016
:1039500000494FF0FF38210740F14B8549F00049FD
:1039600000F047BD179B5A1C17925B78302BF9D09B
:10397000002B00F03E85012300E000230593179BF8
:103980000A22069300239B4602930493179D2E78E8
:10399000A6F13003D9B2092911D8BBF1080FD5BF60
:1039A0000499029902FB013302FB013305F1010581
:1039B000D4BF049302930BF1010B1795E6E7504631
:1039C00002F00AF90768504602F006F90068FFF7AE
:1039D00008FF394602462846FFF70BFF074628B185
:1039E000002033465D46024601465AE0504602F04A
:1039F000F3F80068FFF7F5FE179B1A1817921B5C87
:103A0000BBF1000F45D15846302B05D1179B013033
:103A10005A1C17925B78F7E7A3F13102082A46D8BF
:103A2000179A0692024600200546303B00F101013C
:103A300029D00A44294605EB000C0A2661450FD01F
:103A4000013101F1FF3EBEF1080F03DC049F774313
:103A50000497F3E71029DEBF029F77430297EDE753
:103A60002844082800F1010505DC04980A2101FB1F
:103A70000033049306E0102DDFBF02980A2101FBFA
:103A8000003302930021179B581C17905B7808465F
:103A900002E05D4638463A46A3F130010929C4D90F
:103AA0000121652B01D0452B4FD16DB904E0652B69
:103AB00040F0AD840022012128B9059B002B00F0C5
:103AC0009280054600E00025179C631C17936378DD
:103AD0002B2B06D02D2B02D00026039606E00123C7
:103AE00000E000230393A31C1793A378A3F13006EF
:103AF000092E29D8302B04D1179B5E1C17965B78B2
:103B0000F8E7A3F13106082E1FD8A3F1300E179B5A
:103B10001F46179B5E1C17965B78A3F1300CBCF117
:103B2000090F05D80A2606FB0E3EAEF1300EF0E76F
:103B3000F61B082E44F61F6602DC7645A8BF7646C3
:103B4000039F1FB1764201E017940026002D52D149
:103B5000002840F04E84059A002A40F04A8400294B
:103B600041D14E2B20D007DC492B0AD03BE000BFCF
:103B7000F87E00000000F07F692B02D06E2B13D07E
:103B800031E0AA4917A801F075FF60B3179BA84957
:103B9000013B17A8179301F06DFF10B9179B013374
:103BA0001793DFF8A8921AE0A24917A801F062FF64
:103BB000C8B1179B1B78282B0FD11AAA9E4917A8AA
:103BC00001F06BFF052808D11B9BDDF8688043F0EE
:103BD000FF4949F4E00900F00CBCDFF874924FF0A3
:103BE000000800F006BC139B1794002B00F00C8417
:103BF00000230C93FFE32C46BBF1000F08BFAB463C
:103C00000498102DA8BF1024B71A03F087F8092CC8
:103C10008046894613DD894B03EBC40353E9122325
:103C200003F0F2F880460298894603F077F80246DE
:103C30000B464046494602F035FF804689460F2D27
:103C400033DC002F00F0D58322DD162F07DC7B4DFF
:103C5000424605EBC7014B46D1E9000113E0C5F12F
:103C600025039F4221DC754CC5F10F0504EBC5010E
:103C70007D1B4246D1E900014B4604EBC50403F02D
:103C8000C3F8D4E9002303F0BFF880468946B0E3C7
:103C900017F1160F09DB694D4046A5EBC703D3E9C1
:103CA0000023494603F0DAF9EFE72C1B3C44002CD3
:103CB0005DDD14F00F010AD0604B424603EBC101F9
:103CC000D1E900014B4603F09FF88046894634F065
:103CD0000F0400F0C180B4F59A7F0FDD4FF0000BA8
:103CE000CDF808B0CDF814B0CDF810B02223CAF842
:103CF0000030DFF858914FF0000889E1404649460E
:103D000000234F4E24110293012C0CDDE20704D551
:103D1000D6E9002303F078F80123029A64100132F7
:103D200002920836F0E70BB180468946444B029A6E
:103D3000A9F1547903EBC201D1E9000142464B4697
:103D400003F062F821F0004389460A461B0D3D4905
:103D50001B058B428046C1D8A1F580118B4286BFDE
:103D6000DFF8F0904FF0FF3802F1547974E073D02F
:103D7000644214F00F020AD0304B404603EBC203FA
:103D80004946D3E9002303F069F9804689462411A6
:103D900062D01F2C08DD4FF0000BCDF808B0CDF835
:103DA00014B0CDF810B02CE14046494614F0100F85
:103DB0000CBF00236A23244E03930023002C09DD4B
:103DC000E20704D5D6E9002303F01EF801236410AE
:103DD0000836F3E70BB180468946039BEBB1C9F384
:103DE0000A53C3F16B03002B494616DD1F2B0EDD72
:103DF000342BDEBF203B4FF0FF3202FA03F34FF0CB
:103E00000008CCBF4FF05C7903EA010905E04FF0F0
:103E1000FF3202FA03F303EA0808002200234046B7
:103E2000494603F059FA0028B5D117E08A7E000010
:103E30003C800000927E0000E47E00005080000084
:103E4000288100000000A07C107F00000000F07FAF
:103E50000000F8FFFFFFEF7F00230393049B5A4607
:103E6000009306992B46504601F06EFF05900028FE
:103E70003FF434AF002FC7F10003A8BF00230D9318
:103E80004FF0000B27EAE7731293CDF808B0059BBB
:103E90005046596801F0D1FE049000283FF426AF47
:103EA000059B0C301A6903F10C0102329200FEF7F7
:103EB0005BF91AAB019319AB009342464B4650464F
:103EC000CDE9088902F0EFF9189000283FF40EAF11
:103ED0000121504601F0C3FF029000283FF406AFD5
:103EE000199B0399002BACBF0D9A129A1A9CACBF78
:103EF000D618D21AA3EB01032344B14903F1FF33CF
:103F0000ACBF129A0D9E8B42C4F1360480F28580BC
:103F1000C91A1F29C8BFAB4D4FF00107D4BF07FA1C
:103F200001F3ED1AA4EB0104D9BF0793002507FAAA
:103F300005F507973719039BBE4214441C443346CA
:103F4000A8BF3B46A342A8BF2346002BC2BFFF1A0F
:103F5000E41AF61A0D9B002B63D1002F7ADC129B1A
:103F6000002B40F08180002C00F38880002E00F3AD
:103F70008F80049A1899504602F0C5F883460028AD
:103F80003FF4B4AEC3680024C4600299069302F003
:103F90009EF8A04280F28B80069B002B40F00282AC
:103FA000B8F1000F40F0FE81C9F31303002B40F07D
:103FB000F98129F000431B0D1B05B3F1D66F40F2C8
:103FC000F181DBF81430002B6CD0594601225046A9
:103FD00002F02CF80299834602F079F8002840F3A9
:103FE000E18129F00043039A1B0D1B05002A00F014
:103FF0008D80B3F1D66F00F38980B3F15C7F00F35D
:10400000D38122234FF000084FF00009CAF8003096
:10401000059B002B40F0D981EBE10123002507939C
:1040200088E71A460299504601F0B2FF0290002834
:104030003FF45CAE0146189A504601F019FF069015
:1040400000283FF453AE1899504601F02BFE069B12
:10405000189382E73A461899504601F0E7FF189006
:1040600000287FF47CAF41E6129A0499504601F093
:104070008FFF049000287FF476AF37E6224604993C
:10408000504601F0D3FF049000287FF46FAF2DE677
:1040900032460299504601F0C9FF029000287FF491
:1040A00068AF23E6DBF81030012B8EDC7AE161D1BA
:1040B000069AC9F3130322B343494A468B422ED1D1
:1040C000039B414663B1414B1340B3F1D46F07D812
:1040D0001B0DC3F16B034FF0FF3000FA03F301E057
:1040E0004FF0FF338B421AD139498A4202D1013352
:1040F0003FF4FCAD354B4FF00008134003F5801939
:1041000050E163B9B8F1000F09D16AE7A3F5801354
:104110006FEA13594FF0FF386FEA095942E115B1C0
:1041200015EA090F02E0079B13EA080F00F03A8135
:10413000069B039A4046494653B1FFF76FFB024680
:104140000B46DDE9080102F0ADFC8046894629E115
:10415000FFF764FB02460B46DDE9080102F0A0FC14
:10416000002200238046894603F0B6F800287FF439
:1041700048AF17E10299584602F0E3F800224FF0E9
:10418000804306460F4603F0BBF800283FD0069B4D
:1041900013B100260F4F10E0B8F1000F03D1C9F39F
:1041A00013033BB91AE0B8F1010F03D1B9F1000FC5
:1041B0003FF427AF084F00260024064D3CE000BF27
:1041C00002FCFFFFE2FBFFFFFFFF0F000000F07F9C
:1041D000FFFFEF7F0000F03F0000F0BF00229A4B8E
:1041E0003046394603F082F840B90022974B3046FA
:1041F000394602F009FE04460D4601E0069C934D47
:1042000005F1004314941593DDE9146714E08F4B16
:1042100000223046394602F0F7FD069B04460D4663
:1042200023B901F100430E900F9303E002460B46C1
:10423000CDE90E23DDE90E6729F000431B0D1B05B8
:104240000793079A824B9A422BD1DDE90823A9F103
:10425000547940464946CDE90A2301F0B3FF0246AE
:104260000B463046394602F0CFFD42464B4602F03F
:1042700019FC21F000431B0D764A1B059342804632
:104280000CD9754B0B9A9A4203D10A9B01333FF428
:104290002DADDFF8C4914FF0FF3872E001F1547991
:1042A00039E0039B3BB3079BB3F1D46F23D85EA3E4
:1042B000D3E900232046294603F022F8B8B1294665
:1042C000204603F063F8002808BF012002F026FD15
:1042D000069B04460D4623B901F10043109011934B
:1042E00003E002460B46CDE91023DDE91067079A8B
:1042F00007F1D6639F1ADDE9080101F063FF02466A
:104300000B463046394602F07FFDDDE9082302F016
:10431000C9FB80468946039B9BBB29F000431B0DCC
:10432000079A1B059A424E462BD12946204603F098
:1043300005F802F003FD0B4602462946204602F02E
:10434000AFFB069B04460D462BB9B8F1000F02D116
:10435000C9F313067EB136A3D3E9002320462946CC
:1043600002F0C4FF88BB34A3D3E9002320462946CA
:1043700002F0DAFF04E032A3D3E9002302F0B6FF33
:1043800018BB1899504601F08DFC0499504601F075
:1043900089FC0299504601F085FC5946504601F0CF
:1043A00081FC74E5039B83B12C4B40460B930023A7
:1043B0000A934946DDE90A2302F026FD8046894634
:1043C00019B910B92223CAF800301899504601F0E3
:1043D00069FC0499504601F065FC0299504601F0D1
:1043E00061FC0599504601F05DFC5946504601F0CC
:1043F00059FC139B13B1179B139A13600C9B1BB1B1
:10440000424609F1004307E042464B4604E00025DE
:104410002A460121FFF747BB104619461DB0BDE8EB
:10442000F08F00BFAFF300800000C0FFFFFFDF414F
:104430009535A094FFFFDF3F35E5AF350000E03F45
:104440009535A094FFFFCF3F0000F03F0000E03F14
:104450000000E07FFFFF9F7CFFFFEF7F00005039EF
:104460002DE9F0470F4680463F48D0F800903D4682
:1044700015F8014B09EB0400407800F0080000F04B
:10448000FF0608B12F46F2E72D2C03D1BD1C7C7826
:10449000012603E02B2C04BF7C78BD1C13B1102B2C
:1044A0000AD15BE0302C57D1287800F0DF00582883
:1044B0004DD16C7810230235002E14BF4FF0004C04
:1044C0006FF0004CBCFBF3FA0027384603FB1ACC14
:1044D00009EB040E9EF801E01EF0040F01D0303C01
:1044E0000BE01EF0030E1BD0BEF1010F0CBF4FF00E
:1044F000370E4FF0570ECEEB0404A34210DDB7F198
:10450000FF3F0AD0504506D801D1644503DC03FBC8
:104510000040012701E04FF0FF3715F8014BD7E7C6
:104520007B1C0CD1002E4FF0220314BF4FF0004033
:104530006FF00040C8F800302AB9BDE8F08706B136
:10454000404272B107B1691E1160BDE8F0873024A6
:10455000002BB1D10823AFE70A23ADE7302CA3D05D
:10456000AAE7BDE8F08700BF380100102DE9F04749
:104570000E4680463B48D0F80090354615F8014B72
:1045800009EB0400407800F0080000F0FF0708B1D4
:104590002E46F2E72D2C03D1B51C7478012703E0D9
:1045A0002B2C04BF7478B51C13B1102B0AD153E027
:1045B000302C4FD1287800F0DF00582845D16C7896
:1045C000102302354FF0FF3CBCFBF3FC03FB0CFA5D
:1045D00000266FEA0A0A304609EB040E9EF801E055
:1045E0001EF0040F01D0303C0BE01EF0030E1AD079
:1045F000BEF1010F0CBF4FF0370E4FF0570ECEEB50
:104600000404A3420FDD002E08DB604506D801D16B
:10461000544503DC03FB0040012601E04FF0FF3668
:1046200015F8014BD8E7002E07DA2223C8F800302E
:104630004FF0FF302AB9BDE8F08707B1404272B1B0
:1046400006B1691E1160BDE8F0873024002BB9D196
:104650000823B7E70A23B5E7302CABD0B2E7BDE8B3
:10466000F08700BF380100102DE9F0410C46496B7E
:1046700004F1440399421AD14FF48061FDF7CCFD57
:1046800018B94FF0FF30BDE8F0814FF48063A363A9
:1046900094F84630606380F8FF3394F8453000F2B8
:1046A000FD30437094F844300370206012E0A66B34
:1046B00077003A4601F0B7FE05460028E1D000EB4E
:1046C0000608014632464046FDF74EFDC4F800801C
:1046D0006563A7630020BDE8F0810000F8B50F46D0
:1046E0001446064618B183690BB9FDF74BFB224B04
:1046F0009C4201D1746808E0204B9C4201D1B4680F
:1047000003E01F4B9C4208BFF468A369A360A38920
:104710001A0709D523693BB123682069FDB2181A2D
:10472000636998420FDB08E02146304600F03CF810
:104730000028F1D04FF0FF30F8BD21463046FDF79C
:10474000A5FA0028F6D1A368013BA36023685A1C90
:1047500022601F706269431C934204D0A389DB0767
:1047600007D50A2D05D121463046FDF78FFA0028DE
:10477000E0D12846F8BD00BF0C7E00002C7E000072
:104780004C7E000038B5074C05460846114600220D
:1047900022601A46FBF756FF431C02D1236803B17F
:1047A0002B6038BD2C040010314B70B51D680646D7
:1047B0000C4625B1AB6913B92846FDF7E3FA2D4B3A
:1047C0009C4201D16C6808E02B4B9C4201D1AC6843
:1047D00003E02A4B9C4208BFEC68A3899AB21107F8
:1047E0001DD4D50602D40922326038E0500712D514
:1047F000616B41B104F14403994202D03046FDF7A8
:10480000C7FC00236363A38923F02403A38100234F
:10481000636023692360A38943F00803A3812369AC
:104820004BB9A38903F42073B3F5007F03D021466D
:104830003046FDF72FFCA38913F0010205D00022BA
:10484000A26062695242A26103E0990758BF62699F
:10485000A26022694AB903F0800080B230B143F00F
:104860004003A3814FF0FF3070BD002070BD00BF3A
:10487000340100100C7E00002C7E00004C7E0000F5
:1048800038B5064C0023054608462360FBF7C4FEF6
:10489000431C02D1236803B12B6038BD2C040010E7
:1048A0002DE9F74F03690C6980469C427FDC013C8F
:1048B00001F114074FEA840E00F1140606EB0E0313
:1048C00057F82450019356F824300135B3FBF5F521
:1048D00007EB0E09C5B34FF0000A3846B446D3467D
:1048E00050F8043B9AB205FB02A21B0C4FEA124A95
:1048F00005FB03A392B2C2EB0B0BBCF800204FEAFE
:10490000134A5A441FFA83FBDCF800308145CBEB95
:10491000134303EB224392B242EA03424FEA234B92
:104920004CF8042BDCD256F80E306BB9019B043BDB
:104930009E421A4602D3C8F8104005E01268043BB4
:10494000002AF8D1013CF3E7404601F0C0FB002803
:104950002BDB304601354FF0000E57F8042B03686F
:1049600091B2C1EB0E0E120C99B27144C2EB13431B
:1049700003EB214389B24FEA234EB94541EA034391
:1049800040F8043BE9D256F8242006EB840362B9D0
:10499000043B9E421A4602D3C8F8104005E0126854
:1049A000043B002AF8D1013CF3E7284600E0002050
:1049B00003B0BDE8F08F00002DE9F04F456A95B0D7
:1049C0008246219CCDE9022345B91020FDF7AEFBBC
:1049D000CAF82400456085600560C560DAF82430B7
:1049E000196859B15A68012393404A608B60504658
:1049F00001F058F9DAF8243000221A60039BA04A2B
:104A0000002BBDBF01232360039B0023BCBF23F009
:104A100000430393DDF80C80A8BF236028F0004317
:104A20001B0D1B0593421DD142F20F73209A136098
:104A3000029B43B9934A944BC8F31300002814BF58
:104A40001846104600E09048229B002B00F0468557
:104A5000C37813B100F1080300E0C31C229A13606D
:104A600000F03CBDDDE90245002200232046294636
:104A700002F032FC074658B1209A01231360229BB2
:104A8000002B00F01E8581481860013800F026BD1B
:104A900012AB019313AB009322462B46504601F014
:104AA00002FCC8F30A56049056B1C5F3130343F051
:104AB0007F51204641F44011A6F2FF3611971DE0C8
:104AC000139B129E1E4406F23243202B0ADD029AEB
:104AD00006F21240C3F1400322FA00F008FA03F391
:104AE000184304E0C3F12000029B03FA00F002F037
:104AF00015F90123A1F1F871013E11930022644BD5
:104B000001F0CEFF58A3D3E9002302F07DF958A3AA
:104B1000D3E9002301F0C6FF044630460D4602F0FB
:104B20000DF955A3D3E9002302F06EF902460B46B6
:104B30002046294601F0B6FF04460D4602F0FEFB72
:104B40000022834600232046294602F0CFFB58B1BD
:104B5000584602F0F3F802460B462046294602F07A
:104B6000BBFB08B90BF1FF3BBBF1160F0DD8DDE91C
:104B70000223484901EBCB01D1E9000102F0D4FB4B
:104B800030B10BF1FF3B002300E00123109300E064
:104B90001090129B9E1B731E079343BFC3F1000826
:104BA000002307934FF00008BBF1000F06DB079BC3
:104BB000CDF82CB05B440793002705E00023CBEB36
:104BC0000808CBF100070B931E9B092B28D8052B57
:104BD000C4BF043B1E931E9BC8BF0025A3F1020364
:104BE000D8BF0125032B20D8DFE803F0060E02040E
:104BF000012302E0012308E000230A931F9B002BFE
:104C00001DDD9946059321E000230A931F9B0BEBC2
:104C1000030909F10103012B0593B8BF012315E036
:104C2000012500231E930A9501E001230A934FF00A
:104C3000FF390022CDF8149012231F9206E04FF0A6
:104C400001094B46CDF81490CDF87C90DAF8244059
:104C500000226260042101F114029A421CD86268A9
:104C6000490001326260F6E761436F63A787D23F74
:104C7000B3C8608B288AC63FFB799F501344D33F4B
:104C80000000F07F3980000042800000DF7E0000DD
:104C90000000F83F508000006168504600F0CDFFF2
:104CA000DAF8243020601B680693059B0E2B00F277
:104CB0005B81002D00F05881DDE90234BBF1000F6B
:104CC000CDE90E3430DD9F4A0BF00F034FEA2B1570
:104CD00002EBC303E80618CBCDE908340CD5DDE9B7
:104CE0000E01994B05F00F05D3E9082302F0B6F940
:104CF0000324CDE9020100E00224934E6DB1E907DF
:104D000008D5DDE90801D6E9002302F07DF8CDE9F8
:104D1000080101346D100836F0E7DDE90823DDE90C
:104D2000020102F09BF920E0CBF1000505B3DDE9BB
:104D30000E01844B05F00F0203EBC203D3E90023FD
:104D400002F062F8CDE902017F4E2D11002302240A
:104D500055B1EA0705D5D6E9002302F055F801342C
:104D600001236D100836F3E71BB1CDE9020100E025
:104D70000224109BE3B1DDE902560022734B284662
:104D8000314602F0B3FA98B1059B8BB1B9F1000F2F
:104D900040F3E6800BF1FF330893314600226C4B61
:104DA000284602F031F80134CDE902014E4602E016
:104DB000059ECDF820B0204601F0C0FFDDE90223BA
:104DC00002F022F8634B002201F06CFEA1F1507357
:104DD00004460C931D46D6B9DDE9020100225E4B64
:104DE00001F05EFE22460C9BCDE9020102F09CFA26
:104DF000002840F03F820C99224601F10043DDE992
:104E0000020102F073FA002840F02B82A8E00A9A0F
:104E10004C4B711E002A49D003EBC103D3E9002398
:104E200000204E4902F01AF922462B4601F038FEC6
:104E3000CDE90C01069CDDE9020102F07FFA05468E
:104E400001F07CFF02460B46DDE9020101F028FE7D
:104E5000DDE90C23303504F8015BCDE9020102F0F5
:104E600045FA002840F01D83DDE902230020374980
:104E700001F016FEDDE90C2302F038FA002840F0BC
:104E8000D180069BE31AB3426ADADDE90C01002205
:104E90002F4B01F0B9FF0022CDE90C01DDE9020141
:104EA0002B4B01F0B1FFCDE90201C4E703EBC101D7
:104EB0002246D1E900012B4601F0A6FF069BCDE971
:104EC0000C011D469C19DDE9020102F037FA064685
:104ED00001F034FF02460B46DDE9020101F0E0FD7E
:104EE000303605F8016BAC42CDE902014FF000020B
:104EF00022D11A4BDDE90C0101F0D4FD02460B462C
:104F0000DDE9020102F010FA002840F08B80DDE9B3
:104F10000C230020114901F0C3FD02460B46DDE9D8
:104F2000020102F0E3F9D8B114F8013C621E302B03
:104F300040F0B7821446F7E7054B01F065FFCDE975
:104F40000201C0E750800000288100000000F03F0F
:104F50000000244000001C40000014400000E03F1E
:104F6000DDE90E34CDE90234139B002B7CDBBBF171
:104F70000E0F79DCAB4B03EBCB03D3E900671F9B30
:104F8000002B14DA059B002B11DC40F06C81002211
:104F9000A54B3046394601F037FFDDE9022302F028
:104FA000B9F9059D2E46002840F05F8165E1069C19
:104FB000DDE9028932463B464046494602F04EF85A
:104FC00002F0BCF9054601F0B9FE32463B4601F05D
:104FD0001BFF0B4602464946404601F061FD05F1C4
:104FE000300E069B04F801EBC3EB040E059B7345E2
:104FF0002DD102460B4601F055FD804689460246FA
:105000000B463046394602F071F978B942464B46B4
:105010003046394602F060F9002800F04482EB0780
:1050200004D440E2DDF820B000E01C4614F8012C66
:10503000631E392A07D1069A9A42F6D10699302280
:105040000BF1010B0A701A7801321A702BE2002260
:10505000764B01F0D9FE002200238046894602F0FB
:105060003BF90028A6D01EE20A9A002A2BD01E9AED
:10507000012A0ADC119A12B103F2334302E0129BB7
:10508000C3F136033D46444613E0059B5D1EAF4227
:10509000BFBF0B9BEA1B9B180B93059BB6BF2F460C
:1050A0007D1B0025002BA7BF4446059BC3EB0804CE
:1050B0000023079A01211A4450469844079200F0B1
:1050C000CEFE064602E03D4644460A9E5CB1079B82
:1050D000002B08DDA342A8BF2346079AC3EB0808AC
:1050E000E41AD31A0793002F1DDD0A9BABB18DB1D3
:1050F00031462A46504600F04BFF049A01460646C8
:10510000504600F0B5FE04990890504600F0CAFDE4
:10511000089B04937A1B06D000E03A460499504657
:1051200000F036FF04900121504600F098FE0B9BE2
:1051300005465BB31A460146504600F029FF1E9B08
:105140000546012B18DC029B83B9039BC3F31303B1
:1051500073B9039B23F000473F0D3F054FB1079BF9
:1051600008F1010801330793012702E0002700E05E
:10517000029F0B9B73B100E000272B6905EB8303B3
:10518000186900F01FFEC0F1200004E01E9B012BF7
:10519000D9DD0B9F0120079B184410F01F0008D099
:1051A000C0F12003042B02DDC0F11C0002E006D098
:1051B00018461C30079B8044034404440793B8F10D
:1051C000000F05DD42460499504600F02FFF049081
:1051D000079B002B05DD29461A46504600F026FFA6
:1051E0000546109B23B32946049800F070FF002861
:1051F0001EDA00230A220499504600F06AFD0A9B39
:105200000BF1FF3B0490002B00F05F81314600233F
:105210000A22504600F05DFDB9F1000F06463FDC62
:105220003BE000BF5080000000001440000024401C
:10523000059B002B2BDC1E9B022B28DDDDF8149038
:10524000B9F1000F11D129464B460522504600F016
:1052500040FD01460546049800F039FF00280CDCAB
:1052600003E0354600E000252E461F9B069C6FEAB2
:10527000030B09E03546DDF820B0069B069A5C1C5E
:10528000312313700BF1010B05960026F7E00A9B02
:10529000DDF8149023B9069CB2E01E9B022BCFDCF4
:1052A000002C05DD31462246504600F0BFFE064682
:1052B0009FB17168504600F0C0FC0446326906F1A7
:1052C0000C01023292000C30FCF74EFF0122214605
:1052D000504600F0ABFE059000E00596029B069F4D
:1052E00003F00103079329460498FFF7D9FA3146E2
:1052F000044600F13008049800F0E9FE059A029097
:105300002946504600F0FFFEC36802463BB90146FD
:105310000A90049800F0DBFE0A9A034600E001239D
:10532000114650460A9300F0BDFC0A9B53B91E9AE1
:1053300042B9079A32B9B8F1390F2AD0029B002B33
:105340001CDC1DE0029A002A04DB1BD11E9ACAB99C
:10535000079ABAB9002B13DD01220499504600F0D8
:1053600065FE2946049000F0B2FE002803DC07D158
:1053700018F0010F04D0B8F1390F0AD004F1310848
:105380007C1C0CE0002B07F101040BDDB8F1390F98
:1053900003D139233B70013756E008F1010887F843
:1053A00000806CE0069B2746E31A4B4504F8018C0D
:1053B0003BD000230A220499504600F08AFC059B4A
:1053C00004909E424FF00A024FF0000331465046CF
:1053D00004D100F07EFC0646059084E700F079FCDD
:1053E000002306460A220599504600F072FC0590FB
:1053F00079E700230A220499504600F06AFC0490E1
:1054000029460498FFF74CFA069B00F1300804F88F
:10541000018BE31A4B45ECDB069B0596B9F1010FB6
:10542000ACBF4B4401331F4600260122049950466D
:1054300000F0FCFD2946049000F049FE002803DC42
:1054400015D118F0010F12D03C4614F8013C621E31
:10545000392B09D1069B934204D10BF1010B312367
:10546000069A02E01446F0E70133137007E03C4669
:1054700014F8013C621E302B01D11446F8E729468E
:10548000504600F00FFC059B6BB12EB19E4203D03D
:105490003146504600F006FC0599504600F002FCEB
:1054A00001E0DDF820B00499504600F0FBFB00233A
:1054B000209A23700BF101031360229B1BB11C6027
:1054C00001E008480AE0069808E0B9F1000F3FF74C
:1054D000E2AE1E9B022B7FF7DEAEB1E615B0BDE853
:1054E000F08F00BFDE7E00000B7830B5722B0ED03F
:1054F000772B07D0612B0ED14FF4027401234FF4A8
:1055000084701AE04FF4C0640123082015E00024E1
:105510002346042011E016230360002030BD622DD5
:1055200010D0782D11D02B2D07D120F01C0023F0A6
:10553000030340F0100043F0020311F8015F002D57
:10554000EDD105E043F48033F7E743F40063F4E77B
:105550002343136030BD000038B5074C00230546D7
:10556000084611462360FBF7E3F8431C02D1236889
:1055700003B12B6038BD00BF2C040010F0B50669E4
:105580004B11B34200F1140527DA11F01F0105EBAE
:10559000860605EB830201D1294616E0141D55F855
:1055A00023202B46C1F1200ECA40B44209D22768FD
:1055B00007FA0EF73A4343F8042B54F8042BCA4079
:1055C000F3E71A6052B1043308E0B2420B4605D249
:1055D00052F8043B41F8043BF7E72B465B1B9B105A
:1055E000036103B94361F0BDA0F13003092B01D879
:1055F00020380AE0A0F16103052B01D8473804E008
:10560000A0F14103052B02D82738C0B27047002013
:1056100070472DE9F04F8BB08A4690460693029072
:1056200000F0DAFA03684FF0000B18460393FEF718
:10563000D8F8039B0190034413F8013C0793DAF870
:10564000003002331F4613F8010B302802D10BF152
:10565000010BF7E7FFF7C8FF0446E0B9019A039989
:105660003846FEF7C6F8002834D1019BF85CFE18D6
:10567000FFF7BAFF80B3334618781F46302803F18E
:105680000103F9D0FFF7B0FFB0FA80F534466D0999
:105690004FF0010B01E000252C463A4616463078C3
:1056A0000132FFF7A1FF0028F8D1019A0399304693
:1056B000FEF79FF850B954B9019BF41822461646DC
:1056C00030780132FFF790FF0028F8D134B1A41BE5
:1056D000A40003E03E4600E0044601253378502B49
:1056E00001D0702B2AD173782B2B08D02D2B03D00F
:1056F000711C4FF0000905E04FF0010901E04FF087
:105700000009B11C0878FFF76FFF431EDBB2182BAE
:1057100014D8A0F1100211F8010FFFF765FF431E26
:10572000DBB2182B04D80A2303FB0202103AF2E77B
:10573000B9F1000F00D05242144400E03146CAF8DB
:1057400000102DB1BBF1000F14BF002006207CE13A
:105750002946F31B013B072B02DD01315B10FAE701
:10576000029800F06AFA4FF000090546CB46019B0B
:1057700000F1140AC3F10103CDF810A00893B74259
:105780002FD2731E0593079A16F8013C93420BD053
:10579000BBF1200F16D1049BC3F8009004334FF0E7
:1057A00000090493CB460DE0059B089A13449F42E1
:1057B000EED81846019A03990993FEF71AF8099B47
:1057C00068B1E5E716F8010CFFF70EFF00F00F00D7
:1057D00000FA0BF0059B49EA00090BF1040B1E4689
:1057E000CDE7049840F8049BCAEB000080102861C4
:1057F0004701484600F0E6FAD8F80060381AB0428F
:1058000026DD871B3946284600F0DDFDC8B17B1E2A
:10581000591103F01F024FF001095AF8211009FA3B
:1058200002F20A420ED04B4502DC4FF0020909E0B9
:10583000B91E284600F0C7FD0028F6D04FF0030936
:1058400000E0814639462846FFF798FE3C440CE0CC
:1058500009DA371A29463A46029800F0E7FB05466E
:10586000E41B00F1140A4FF00009D8F808309C42FC
:1058700008DD0298294600F015FA149A00231360F7
:10588000A320E2E0D8F80400844253DA041BA642C5
:105890002EDCD8F80C30022B1AD0032B1CD0012B95
:1058A0001DD1A6421BD1012E0BDCD8F80430069A7C
:1058B0006220136001232B61CAF80030149B1D6025
:1058C000C3E0711E284600F07EFD0028EDD106E001
:1058D000159B002BE9D002E0159B002BE5D1029827
:1058E000294600F0DFF9149A002313605020ACE041
:1058F000671EB9F1000F06D13FB13946284600F0C6
:1059000062FD814601E04FF001097A11012307F0A1
:105910001F0703FA07F75AF8223021461F4228468C
:1059200018BF49F00209361BFFF728FE0227D8F8F6
:10593000044000E00127B9F1000F00F08180D8F8A1
:105940000C30022B0ED0032B10D0012B76D119F086
:10595000020F73D0DAF8000049EA000919F0010FCC
:1059600007D16BE0159BC3F101031593159B002B29
:1059700064D0D5F810A005F114034FEA8A0903EBAF
:10598000090100201A68B2F1FF3F02D001321A600B
:1059900020E043F8040B9942F4D8AB689A4512DB37
:1059A00069680298013100F048F983462A6905F1D7
:1059B0000C01023292000C30FCF7D6FB294602980B
:1059C00000F070F95D462B695A1C2A6105EB8303D0
:1059D00001225A61022F05F1140211D1D8F80030CA
:1059E000013B9E4227D17111012306F01F0603FAE5
:1059F00006F652F821301E420CBF022701271AE09A
:105A00002B699A450ADA01212846FFF7B7FDD8F835
:105A1000083001349C423FF72CAF0BE016F01F0614
:105A200008D0914459F8040C00F0CCF9C6F12006D6
:105A3000B042E8DB012747F0200701E047F01007FC
:105A40003846149B1D60069B1C600BB0BDE8F08FB0
:105A5000C2F10802920070B5C2F1200643680568E1
:105A600003FA06F42C43D340046040F8043F884214
:105A7000F4D370BD30B5036811F8014B01334CB15C
:105A80001A78A2F14105192D98BF2032A242F3D015
:105A9000002030BD0360012030BD0B682DE9F04FC0
:105AA0005E1102EB860613F01F0318BF0436351F84
:105AB000174600228246A8462C46914685B0D0F86B
:105AC00000B0019346F8042C00921BF8011F002936
:105AD0003CD0084603920291FFF786FD039A00BB73
